{
  "_format": "hh-sol-artifact-1",
  "contractName": "Lottery",
  "sourceName": "contracts/Lottery.sol",
  "abi": [
    {
      "inputs": [
        {
          "internalType": "string",
          "name": "tokenName",
          "type": "string"
        },
        {
          "internalType": "string",
          "name": "tokenSymbol",
          "type": "string"
        },
        {
          "internalType": "uint256",
          "name": "_purchaseRatio",
          "type": "uint256"
        },
        {
          "internalType": "uint256",
          "name": "_betPrice",
          "type": "uint256"
        },
        {
          "internalType": "uint256",
          "name": "_betFee",
          "type": "uint256"
        }
      ],
      "stateMutability": "nonpayable",
      "type": "constructor"
    },
    {
      "inputs": [
        {
          "internalType": "address",
          "name": "owner",
          "type": "address"
        }
      ],
      "name": "OwnableInvalidOwner",
      "type": "error"
    },
    {
      "inputs": [
        {
          "internalType": "address",
          "name": "account",
          "type": "address"
        }
      ],
      "name": "OwnableUnauthorizedAccount",
      "type": "error"
    },
    {
      "anonymous": false,
      "inputs": [
        {
          "indexed": true,
          "internalType": "address",
          "name": "previousOwner",
          "type": "address"
        },
        {
          "indexed": true,
          "internalType": "address",
          "name": "newOwner",
          "type": "address"
        }
      ],
      "name": "OwnershipTransferred",
      "type": "event"
    },
    {
      "inputs": [],
      "name": "bet",
      "outputs": [],
      "stateMutability": "nonpayable",
      "type": "function"
    },
    {
      "inputs": [],
      "name": "betFee",
      "outputs": [
        {
          "internalType": "uint256",
          "name": "",
          "type": "uint256"
        }
      ],
      "stateMutability": "view",
      "type": "function"
    },
    {
      "inputs": [
        {
          "internalType": "uint256",
          "name": "times",
          "type": "uint256"
        }
      ],
      "name": "betMany",
      "outputs": [],
      "stateMutability": "nonpayable",
      "type": "function"
    },
    {
      "inputs": [],
      "name": "betPrice",
      "outputs": [
        {
          "internalType": "uint256",
          "name": "",
          "type": "uint256"
        }
      ],
      "stateMutability": "view",
      "type": "function"
    },
    {
      "inputs": [],
      "name": "betsClosingTime",
      "outputs": [
        {
          "internalType": "uint256",
          "name": "",
          "type": "uint256"
        }
      ],
      "stateMutability": "view",
      "type": "function"
    },
    {
      "inputs": [],
      "name": "betsOpen",
      "outputs": [
        {
          "internalType": "bool",
          "name": "",
          "type": "bool"
        }
      ],
      "stateMutability": "view",
      "type": "function"
    },
    {
      "inputs": [],
      "name": "closeLottery",
      "outputs": [],
      "stateMutability": "nonpayable",
      "type": "function"
    },
    {
      "inputs": [],
      "name": "getRandomNumber",
      "outputs": [
        {
          "internalType": "uint256",
          "name": "randomNumber",
          "type": "uint256"
        }
      ],
      "stateMutability": "view",
      "type": "function"
    },
    {
      "inputs": [
        {
          "internalType": "uint256",
          "name": "closingTime",
          "type": "uint256"
        }
      ],
      "name": "openBets",
      "outputs": [],
      "stateMutability": "nonpayable",
      "type": "function"
    },
    {
      "inputs": [],
      "name": "owner",
      "outputs": [
        {
          "internalType": "address",
          "name": "",
          "type": "address"
        }
      ],
      "stateMutability": "view",
      "type": "function"
    },
    {
      "inputs": [],
      "name": "ownerPool",
      "outputs": [
        {
          "internalType": "uint256",
          "name": "",
          "type": "uint256"
        }
      ],
      "stateMutability": "view",
      "type": "function"
    },
    {
      "inputs": [
        {
          "internalType": "uint256",
          "name": "amount",
          "type": "uint256"
        }
      ],
      "name": "ownerWithdraw",
      "outputs": [],
      "stateMutability": "nonpayable",
      "type": "function"
    },
    {
      "inputs": [],
      "name": "paymentToken",
      "outputs": [
        {
          "internalType": "contract LotteryToken",
          "name": "",
          "type": "address"
        }
      ],
      "stateMutability": "view",
      "type": "function"
    },
    {
      "inputs": [
        {
          "internalType": "address",
          "name": "",
          "type": "address"
        }
      ],
      "name": "prize",
      "outputs": [
        {
          "internalType": "uint256",
          "name": "",
          "type": "uint256"
        }
      ],
      "stateMutability": "view",
      "type": "function"
    },
    {
      "inputs": [],
      "name": "prizePool",
      "outputs": [
        {
          "internalType": "uint256",
          "name": "",
          "type": "uint256"
        }
      ],
      "stateMutability": "view",
      "type": "function"
    },
    {
      "inputs": [
        {
          "internalType": "uint256",
          "name": "amount",
          "type": "uint256"
        }
      ],
      "name": "prizeWithdraw",
      "outputs": [],
      "stateMutability": "nonpayable",
      "type": "function"
    },
    {
      "inputs": [],
      "name": "purchaseRatio",
      "outputs": [
        {
          "internalType": "uint256",
          "name": "",
          "type": "uint256"
        }
      ],
      "stateMutability": "view",
      "type": "function"
    },
    {
      "inputs": [],
      "name": "purchaseTokens",
      "outputs": [],
      "stateMutability": "payable",
      "type": "function"
    },
    {
      "inputs": [],
      "name": "renounceOwnership",
      "outputs": [],
      "stateMutability": "nonpayable",
      "type": "function"
    },
    {
      "inputs": [
        {
          "internalType": "uint256",
          "name": "amount",
          "type": "uint256"
        }
      ],
      "name": "returnTokens",
      "outputs": [],
      "stateMutability": "nonpayable",
      "type": "function"
    },
    {
      "inputs": [
        {
          "internalType": "address",
          "name": "newOwner",
          "type": "address"
        }
      ],
      "name": "transferOwnership",
      "outputs": [],
      "stateMutability": "nonpayable",
      "type": "function"
    }
  ],
  "bytecode": "0x60806040523480156200001157600080fd5b5060405162003c4a38038062003c4a8339818101604052810190620000379190620003fa565b33600073ffffffffffffffffffffffffffffffffffffffff168173ffffffffffffffffffffffffffffffffffffffff1603620000ad5760006040517f1e4fbdf7000000000000000000000000000000000000000000000000000000008152600401620000a4919062000505565b60405180910390fd5b620000be816200015a60201b60201c565b508484604051620000cf906200021e565b620000dc9291906200057f565b604051809103906000f080158015620000f9573d6000803e3d6000fd5b50600160006101000a81548173ffffffffffffffffffffffffffffffffffffffff021916908373ffffffffffffffffffffffffffffffffffffffff1602179055508260028190555081600381905550806004819055505050505050620005ba565b60008060009054906101000a900473ffffffffffffffffffffffffffffffffffffffff169050816000806101000a81548173ffffffffffffffffffffffffffffffffffffffff021916908373ffffffffffffffffffffffffffffffffffffffff1602179055508173ffffffffffffffffffffffffffffffffffffffff168173ffffffffffffffffffffffffffffffffffffffff167f8be0079c531659141344cd1fd0a4f28419497f9722a3daafe3b4186f6b6457e060405160405180910390a35050565b611f9f8062001cab83390190565b6000604051905090565b600080fd5b600080fd5b600080fd5b600080fd5b6000601f19601f8301169050919050565b7f4e487b7100000000000000000000000000000000000000000000000000000000600052604160045260246000fd5b62000295826200024a565b810181811067ffffffffffffffff82111715620002b757620002b66200025b565b5b80604052505050565b6000620002cc6200022c565b9050620002da82826200028a565b919050565b600067ffffffffffffffff821115620002fd57620002fc6200025b565b5b62000308826200024a565b9050602081019050919050565b60005b838110156200033557808201518184015260208101905062000318565b60008484015250505050565b6000620003586200035284620002df565b620002c0565b90508281526020810184848401111562000377576200037662000245565b5b6200038484828562000315565b509392505050565b600082601f830112620003a457620003a362000240565b5b8151620003b684826020860162000341565b91505092915050565b6000819050919050565b620003d481620003bf565b8114620003e057600080fd5b50565b600081519050620003f481620003c9565b92915050565b600080600080600060a0868803121562000419576200041862000236565b5b600086015167ffffffffffffffff8111156200043a57620004396200023b565b5b62000448888289016200038c565b955050602086015167ffffffffffffffff8111156200046c576200046b6200023b565b5b6200047a888289016200038c565b94505060406200048d88828901620003e3565b9350506060620004a088828901620003e3565b9250506080620004b388828901620003e3565b9150509295509295909350565b600073ffffffffffffffffffffffffffffffffffffffff82169050919050565b6000620004ed82620004c0565b9050919050565b620004ff81620004e0565b82525050565b60006020820190506200051c6000830184620004f4565b92915050565b600081519050919050565b600082825260208201905092915050565b60006200054b8262000522565b6200055781856200052d565b93506200056981856020860162000315565b62000574816200024a565b840191505092915050565b600060408201905081810360008301526200059b81856200053e565b90508181036020830152620005b181846200053e565b90509392505050565b6116e180620005ca6000396000f3fe60806040526004361061012a5760003560e01c8063719ce73e116100ab57806395cadc471161006f57806395cadc4714610361578063990a49f51461038c578063cfd8a175146103b5578063d1b258ff146103e0578063dbdff2c11461040b578063f2fde38b146104365761012a565b8063719ce73e1461027a578063729e91e9146102a5578063841e6ce9146102ce5780638adf9c1f146102f95780638da5cb5b146103365761012a565b806333f707d1116100f257806333f707d1146101d15780633ae1786f146101fa5780633cc121e6146102235780636fd098161461024c578063715018a6146102635761012a565b806311610c251461012f57806318c34965146101465780632b65e040146101715780633013ce291461019c5780633290ce29146101c7575b600080fd5b34801561013b57600080fd5b5061014461045f565b005b34801561015257600080fd5b5061015b6105ac565b6040516101689190611028565b60405180910390f35b34801561017d57600080fd5b506101866105b2565b6040516101939190611028565b60405180910390f35b3480156101a857600080fd5b506101b16105b8565b6040516101be91906110c2565b60405180910390f35b6101cf6105de565b005b3480156101dd57600080fd5b506101f860048036038101906101f3919061110e565b61067c565b005b34801561020657600080fd5b50610221600480360381019061021c919061110e565b610786565b005b34801561022f57600080fd5b5061024a6004803603810190610245919061110e565b61086c565b005b34801561025857600080fd5b506102616109e8565b005b34801561026f57600080fd5b50610278610b77565b005b34801561028657600080fd5b5061028f610b8b565b60405161029c9190611028565b60405180910390f35b3480156102b157600080fd5b506102cc60048036038101906102c7919061110e565b610b91565b005b3480156102da57600080fd5b506102e3610d23565b6040516102f09190611028565b60405180910390f35b34801561030557600080fd5b50610320600480360381019061031b9190611179565b610d29565b60405161032d9190611028565b60405180910390f35b34801561034257600080fd5b5061034b610d41565b60405161035891906111b5565b60405180910390f35b34801561036d57600080fd5b50610376610d6a565b6040516103839190611028565b60405180910390f35b34801561039857600080fd5b506103b360048036038101906103ae919061110e565b610d70565b005b3480156103c157600080fd5b506103ca610dd7565b6040516103d79190611028565b60405180910390f35b3480156103ec57600080fd5b506103f5610ddd565b60405161040291906111eb565b60405180910390f35b34801561041757600080fd5b50610420610df0565b60405161042d9190611028565b60405180910390f35b34801561044257600080fd5b5061045d60048036038101906104589190611179565b610df8565b005b600454600860008282546104739190611235565b925050819055506003546007600082825461048e9190611235565b92505081905550600a339080600181540180825580915050600190039060005260206000200160009091909190916101000a81548173ffffffffffffffffffffffffffffffffffffffff021916908373ffffffffffffffffffffffffffffffffffffffff160217905550600160009054906101000a900473ffffffffffffffffffffffffffffffffffffffff1673ffffffffffffffffffffffffffffffffffffffff166323b872dd33306004546003546105489190611235565b6040518463ffffffff1660e01b815260040161056693929190611269565b6020604051808303816000875af1158015610585573d6000803e3d6000fd5b505050506040513d601f19601f820116820180604052508101906105a991906112cc565b50565b60065481565b60085481565b600160009054906101000a900473ffffffffffffffffffffffffffffffffffffffff1681565b600160009054906101000a900473ffffffffffffffffffffffffffffffffffffffff1673ffffffffffffffffffffffffffffffffffffffff166340c10f19336002543461062b91906112f9565b6040518363ffffffff1660e01b815260040161064892919061133b565b600060405180830381600087803b15801561066257600080fd5b505af1158015610676573d6000803e3d6000fd5b50505050565b610684610e7e565b6008548111156106c9576040517f08c379a00000000000000000000000000000000000000000000000000000000081526004016106c0906113c1565b60405180910390fd5b80600860008282546106db91906113e1565b92505081905550600160009054906101000a900473ffffffffffffffffffffffffffffffffffffffff1673ffffffffffffffffffffffffffffffffffffffff1663a9059cbb33836040518363ffffffff1660e01b815260040161073f92919061133b565b6020604051808303816000875af115801561075e573d6000803e3d6000fd5b505050506040513d601f19601f8201168201806040525081019061078291906112cc565b5050565b600160009054906101000a900473ffffffffffffffffffffffffffffffffffffffff1673ffffffffffffffffffffffffffffffffffffffff166379cc679033836040518363ffffffff1660e01b81526004016107e392919061133b565b600060405180830381600087803b1580156107fd57600080fd5b505af1158015610811573d6000803e3d6000fd5b505050503373ffffffffffffffffffffffffffffffffffffffff166108fc6002548361083d9190611444565b9081150290604051600060405180830381858888f19350505050158015610868573d6000803e3d6000fd5b5050565b600960003373ffffffffffffffffffffffffffffffffffffffff1673ffffffffffffffffffffffffffffffffffffffff168152602001908152602001600020548111156108ee576040517f08c379a00000000000000000000000000000000000000000000000000000000081526004016108e5906114c1565b60405180910390fd5b80600960003373ffffffffffffffffffffffffffffffffffffffff1673ffffffffffffffffffffffffffffffffffffffff168152602001908152602001600020600082825461093d91906113e1565b92505081905550600160009054906101000a900473ffffffffffffffffffffffffffffffffffffffff1673ffffffffffffffffffffffffffffffffffffffff1663a9059cbb33836040518363ffffffff1660e01b81526004016109a192919061133b565b6020604051808303816000875af11580156109c0573d6000803e3d6000fd5b505050506040513d601f19601f820116820180604052508101906109e491906112cc565b5050565b600654421015610a2d576040517f08c379a0000000000000000000000000000000000000000000000000000000008152600401610a249061152d565b60405180910390fd5b600560009054906101000a900460ff16610a7c576040517f08c379a0000000000000000000000000000000000000000000000000000000008152600401610a7390611599565b60405180910390fd5b6000600a805490501115610b5a576000600a80549050610a9a610df0565b610aa491906115b9565b90506000600a8281548110610abc57610abb6115ea565b5b9060005260206000200160009054906101000a900473ffffffffffffffffffffffffffffffffffffffff169050600754600960008373ffffffffffffffffffffffffffffffffffffffff1673ffffffffffffffffffffffffffffffffffffffff1681526020019081526020016000206000828254610b3a9190611235565b925050819055506000600781905550600a6000610b579190610fd1565b50505b6000600560006101000a81548160ff021916908315150217905550565b610b7f610e7e565b610b896000610f05565b565b60075481565b60008111610b9e57600080fd5b600060035482610bae91906112f9565b9050600060045483610bc091906112f9565b90508060086000828254610bd49190611235565b925050819055508160076000828254610bed9190611235565b9250508190555060005b83811015610c6f57600a339080600181540180825580915050600190039060005260206000200160009091909190916101000a81548173ffffffffffffffffffffffffffffffffffffffff021916908373ffffffffffffffffffffffffffffffffffffffff1602179055508080600101915050610bf7565b50600160009054906101000a900473ffffffffffffffffffffffffffffffffffffffff1673ffffffffffffffffffffffffffffffffffffffff166323b872dd33308486610cbc9190611235565b6040518463ffffffff1660e01b8152600401610cda93929190611269565b6020604051808303816000875af1158015610cf9573d6000803e3d6000fd5b505050506040513d601f19601f82011682018060405250810190610d1d91906112cc565b50505050565b60045481565b60096020528060005260406000206000915090505481565b60008060009054906101000a900473ffffffffffffffffffffffffffffffffffffffff16905090565b60025481565b428111610db2576040517f08c379a0000000000000000000000000000000000000000000000000000000008152600401610da99061168b565b60405180910390fd5b806006819055506001600560006101000a81548160ff02191690831515021790555050565b60035481565b600560009054906101000a900460ff1681565b600044905090565b610e00610e7e565b600073ffffffffffffffffffffffffffffffffffffffff168173ffffffffffffffffffffffffffffffffffffffff1603610e725760006040517f1e4fbdf7000000000000000000000000000000000000000000000000000000008152600401610e6991906111b5565b60405180910390fd5b610e7b81610f05565b50565b610e86610fc9565b73ffffffffffffffffffffffffffffffffffffffff16610ea4610d41565b73ffffffffffffffffffffffffffffffffffffffff1614610f0357610ec7610fc9565b6040517f118cdaa7000000000000000000000000000000000000000000000000000000008152600401610efa91906111b5565b60405180910390fd5b565b60008060009054906101000a900473ffffffffffffffffffffffffffffffffffffffff169050816000806101000a81548173ffffffffffffffffffffffffffffffffffffffff021916908373ffffffffffffffffffffffffffffffffffffffff1602179055508173ffffffffffffffffffffffffffffffffffffffff168173ffffffffffffffffffffffffffffffffffffffff167f8be0079c531659141344cd1fd0a4f28419497f9722a3daafe3b4186f6b6457e060405160405180910390a35050565b600033905090565b5080546000825590600052602060002090810190610fef9190610ff2565b50565b5b8082111561100b576000816000905550600101610ff3565b5090565b6000819050919050565b6110228161100f565b82525050565b600060208201905061103d6000830184611019565b92915050565b600073ffffffffffffffffffffffffffffffffffffffff82169050919050565b6000819050919050565b600061108861108361107e84611043565b611063565b611043565b9050919050565b600061109a8261106d565b9050919050565b60006110ac8261108f565b9050919050565b6110bc816110a1565b82525050565b60006020820190506110d760008301846110b3565b92915050565b600080fd5b6110eb8161100f565b81146110f657600080fd5b50565b600081359050611108816110e2565b92915050565b600060208284031215611124576111236110dd565b5b6000611132848285016110f9565b91505092915050565b600061114682611043565b9050919050565b6111568161113b565b811461116157600080fd5b50565b6000813590506111738161114d565b92915050565b60006020828403121561118f5761118e6110dd565b5b600061119d84828501611164565b91505092915050565b6111af8161113b565b82525050565b60006020820190506111ca60008301846111a6565b92915050565b60008115159050919050565b6111e5816111d0565b82525050565b600060208201905061120060008301846111dc565b92915050565b7f4e487b7100000000000000000000000000000000000000000000000000000000600052601160045260246000fd5b60006112408261100f565b915061124b8361100f565b925082820190508082111561126357611262611206565b5b92915050565b600060608201905061127e60008301866111a6565b61128b60208301856111a6565b6112986040830184611019565b949350505050565b6112a9816111d0565b81146112b457600080fd5b50565b6000815190506112c6816112a0565b92915050565b6000602082840312156112e2576112e16110dd565b5b60006112f0848285016112b7565b91505092915050565b60006113048261100f565b915061130f8361100f565b925082820261131d8161100f565b9150828204841483151761133457611333611206565b5b5092915050565b600060408201905061135060008301856111a6565b61135d6020830184611019565b9392505050565b600082825260208201905092915050565b7f4e6f7420656e6f756768206665657320636f6c6c656374656400000000000000600082015250565b60006113ab601983611364565b91506113b682611375565b602082019050919050565b600060208201905081810360008301526113da8161139e565b9050919050565b60006113ec8261100f565b91506113f78361100f565b925082820390508181111561140f5761140e611206565b5b92915050565b7f4e487b7100000000000000000000000000000000000000000000000000000000600052601260045260246000fd5b600061144f8261100f565b915061145a8361100f565b92508261146a57611469611415565b5b828204905092915050565b7f4e6f7420656e6f756768207072697a6500000000000000000000000000000000600082015250565b60006114ab601083611364565b91506114b682611475565b602082019050919050565b600060208201905081810360008301526114da8161149e565b9050919050565b7f546f6f20736f6f6e20746f20636c6f7365000000000000000000000000000000600082015250565b6000611517601183611364565b9150611522826114e1565b602082019050919050565b600060208201905081810360008301526115468161150a565b9050919050565b7f416c726561647920636c6f736564000000000000000000000000000000000000600082015250565b6000611583600e83611364565b915061158e8261154d565b602082019050919050565b600060208201905081810360008301526115b281611576565b9050919050565b60006115c48261100f565b91506115cf8361100f565b9250826115df576115de611415565b5b828206905092915050565b7f4e487b7100000000000000000000000000000000000000000000000000000000600052603260045260246000fd5b7f436c6f73696e672074696d65206d75737420626520696e20746865206675747560008201527f7265000000000000000000000000000000000000000000000000000000000000602082015250565b6000611675602283611364565b915061168082611619565b604082019050919050565b600060208201905081810360008301526116a481611668565b905091905056fea26469706673582212204f48883f07e6c65f5221a63569b93ac16b2d465a83d944c5643b45620d59b44464736f6c6343000818003360806040523480156200001157600080fd5b5060405162001f9f38038062001f9f8339818101604052810190620000379190620003ba565b818181600390816200004a91906200068a565b5080600490816200005c91906200068a565b505050620000746000801b33620000b060201b60201c565b50620000a77f9f2df0fed2c77648de5860a4cc508cd0818c85b8b8a1ab4ceeef8d981c8956a633620000b060201b60201c565b50505062000771565b6000620000c48383620001b460201b60201c565b620001a95760016005600085815260200190815260200160002060000160008473ffffffffffffffffffffffffffffffffffffffff1673ffffffffffffffffffffffffffffffffffffffff16815260200190815260200160002060006101000a81548160ff021916908315150217905550620001456200021f60201b60201c565b73ffffffffffffffffffffffffffffffffffffffff168273ffffffffffffffffffffffffffffffffffffffff16847f2f8788117e7eff1d82e926ec794901d17c78024a50270940304540a733656f0d60405160405180910390a460019050620001ae565b600090505b92915050565b60006005600084815260200190815260200160002060000160008373ffffffffffffffffffffffffffffffffffffffff1673ffffffffffffffffffffffffffffffffffffffff16815260200190815260200160002060009054906101000a900460ff16905092915050565b600033905090565b6000604051905090565b600080fd5b600080fd5b600080fd5b600080fd5b6000601f19601f8301169050919050565b7f4e487b7100000000000000000000000000000000000000000000000000000000600052604160045260246000fd5b620002908262000245565b810181811067ffffffffffffffff82111715620002b257620002b162000256565b5b80604052505050565b6000620002c762000227565b9050620002d5828262000285565b919050565b600067ffffffffffffffff821115620002f857620002f762000256565b5b620003038262000245565b9050602081019050919050565b60005b838110156200033057808201518184015260208101905062000313565b60008484015250505050565b6000620003536200034d84620002da565b620002bb565b90508281526020810184848401111562000372576200037162000240565b5b6200037f84828562000310565b509392505050565b600082601f8301126200039f576200039e6200023b565b5b8151620003b18482602086016200033c565b91505092915050565b60008060408385031215620003d457620003d362000231565b5b600083015167ffffffffffffffff811115620003f557620003f462000236565b5b620004038582860162000387565b925050602083015167ffffffffffffffff81111562000427576200042662000236565b5b620004358582860162000387565b9150509250929050565b600081519050919050565b7f4e487b7100000000000000000000000000000000000000000000000000000000600052602260045260246000fd5b600060028204905060018216806200049257607f821691505b602082108103620004a857620004a76200044a565b5b50919050565b60008190508160005260206000209050919050565b60006020601f8301049050919050565b600082821b905092915050565b600060088302620005127fffffffffffffffffffffffffffffffffffffffffffffffffffffffffffffffff82620004d3565b6200051e8683620004d3565b95508019841693508086168417925050509392505050565b6000819050919050565b6000819050919050565b60006200056b620005656200055f8462000536565b62000540565b62000536565b9050919050565b6000819050919050565b62000587836200054a565b6200059f620005968262000572565b848454620004e0565b825550505050565b600090565b620005b6620005a7565b620005c38184846200057c565b505050565b5b81811015620005eb57620005df600082620005ac565b600181019050620005c9565b5050565b601f8211156200063a576200060481620004ae565b6200060f84620004c3565b810160208510156200061f578190505b620006376200062e85620004c3565b830182620005c8565b50505b505050565b600082821c905092915050565b60006200065f600019846008026200063f565b1980831691505092915050565b60006200067a83836200064c565b9150826002028217905092915050565b62000695826200043f565b67ffffffffffffffff811115620006b157620006b062000256565b5b620006bd825462000479565b620006ca828285620005ef565b600060209050601f831160018114620007025760008415620006ed578287015190505b620006f985826200066c565b86555062000769565b601f1984166200071286620004ae565b60005b828110156200073c5784890151825560018201915060208501945060208101905062000715565b868310156200075c578489015162000758601f8916826200064c565b8355505b6001600288020188555050505b505050505050565b61181e80620007816000396000f3fe608060405234801561001057600080fd5b506004361061012c5760003560e01c806342966c68116100ad578063a217fddf11610071578063a217fddf14610355578063a9059cbb14610373578063d5391393146103a3578063d547741f146103c1578063dd62ed3e146103dd5761012c565b806342966c681461029f57806370a08231146102bb57806379cc6790146102eb57806391d148541461030757806395d89b41146103375761012c565b8063248a9ca3116100f4578063248a9ca3146101fd5780632f2ff15d1461022d578063313ce5671461024957806336568abe1461026757806340c10f19146102835761012c565b806301ffc9a71461013157806306fdde0314610161578063095ea7b31461017f57806318160ddd146101af57806323b872dd146101cd575b600080fd5b61014b60048036038101906101469190611297565b61040d565b60405161015891906112df565b60405180910390f35b610169610487565b604051610176919061138a565b60405180910390f35b61019960048036038101906101949190611440565b610519565b6040516101a691906112df565b60405180910390f35b6101b761053c565b6040516101c4919061148f565b60405180910390f35b6101e760048036038101906101e291906114aa565b610546565b6040516101f491906112df565b60405180910390f35b61021760048036038101906102129190611533565b610575565b604051610224919061156f565b60405180910390f35b6102476004803603810190610242919061158a565b610595565b005b6102516105b7565b60405161025e91906115e6565b60405180910390f35b610281600480360381019061027c919061158a565b6105c0565b005b61029d60048036038101906102989190611440565b61063b565b005b6102b960048036038101906102b49190611601565b610674565b005b6102d560048036038101906102d0919061162e565b610688565b6040516102e2919061148f565b60405180910390f35b61030560048036038101906103009190611440565b6106d0565b005b610321600480360381019061031c919061158a565b6106f0565b60405161032e91906112df565b60405180910390f35b61033f61075b565b60405161034c919061138a565b60405180910390f35b61035d6107ed565b60405161036a919061156f565b60405180910390f35b61038d60048036038101906103889190611440565b6107f4565b60405161039a91906112df565b60405180910390f35b6103ab610817565b6040516103b8919061156f565b60405180910390f35b6103db60048036038101906103d6919061158a565b61083b565b005b6103f760048036038101906103f2919061165b565b61085d565b604051610404919061148f565b60405180910390f35b60007f7965db0b000000000000000000000000000000000000000000000000000000007bffffffffffffffffffffffffffffffffffffffffffffffffffffffff1916827bffffffffffffffffffffffffffffffffffffffffffffffffffffffff19161480610480575061047f826108e4565b5b9050919050565b606060038054610496906116ca565b80601f01602080910402602001604051908101604052809291908181526020018280546104c2906116ca565b801561050f5780601f106104e45761010080835404028352916020019161050f565b820191906000526020600020905b8154815290600101906020018083116104f257829003601f168201915b5050505050905090565b60008061052461094e565b9050610531818585610956565b600191505092915050565b6000600254905090565b60008061055161094e565b905061055e858285610968565b6105698585856109fc565b60019150509392505050565b600060056000838152602001908152602001600020600101549050919050565b61059e82610575565b6105a781610af0565b6105b18383610b04565b50505050565b60006012905090565b6105c861094e565b73ffffffffffffffffffffffffffffffffffffffff168173ffffffffffffffffffffffffffffffffffffffff161461062c576040517f6697b23200000000000000000000000000000000000000000000000000000000815260040160405180910390fd5b6106368282610bf6565b505050565b7f9f2df0fed2c77648de5860a4cc508cd0818c85b8b8a1ab4ceeef8d981c8956a661066581610af0565b61066f8383610ce9565b505050565b61068561067f61094e565b82610d6b565b50565b60008060008373ffffffffffffffffffffffffffffffffffffffff1673ffffffffffffffffffffffffffffffffffffffff168152602001908152602001600020549050919050565b6106e2826106dc61094e565b83610968565b6106ec8282610d6b565b5050565b60006005600084815260200190815260200160002060000160008373ffffffffffffffffffffffffffffffffffffffff1673ffffffffffffffffffffffffffffffffffffffff16815260200190815260200160002060009054906101000a900460ff16905092915050565b60606004805461076a906116ca565b80601f0160208091040260200160405190810160405280929190818152602001828054610796906116ca565b80156107e35780601f106107b8576101008083540402835291602001916107e3565b820191906000526020600020905b8154815290600101906020018083116107c657829003601f168201915b5050505050905090565b6000801b81565b6000806107ff61094e565b905061080c8185856109fc565b600191505092915050565b7f9f2df0fed2c77648de5860a4cc508cd0818c85b8b8a1ab4ceeef8d981c8956a681565b61084482610575565b61084d81610af0565b6108578383610bf6565b50505050565b6000600160008473ffffffffffffffffffffffffffffffffffffffff1673ffffffffffffffffffffffffffffffffffffffff16815260200190815260200160002060008373ffffffffffffffffffffffffffffffffffffffff1673ffffffffffffffffffffffffffffffffffffffff16815260200190815260200160002054905092915050565b60007f01ffc9a7000000000000000000000000000000000000000000000000000000007bffffffffffffffffffffffffffffffffffffffffffffffffffffffff1916827bffffffffffffffffffffffffffffffffffffffffffffffffffffffff1916149050919050565b600033905090565b6109638383836001610ded565b505050565b6000610974848461085d565b90507fffffffffffffffffffffffffffffffffffffffffffffffffffffffffffffffff81146109f657818110156109e6578281836040517ffb8f41b20000000000000000000000000000000000000000000000000000000081526004016109dd9392919061170a565b60405180910390fd5b6109f584848484036000610ded565b5b50505050565b600073ffffffffffffffffffffffffffffffffffffffff168373ffffffffffffffffffffffffffffffffffffffff1603610a6e5760006040517f96c6fd1e000000000000000000000000000000000000000000000000000000008152600401610a659190611741565b60405180910390fd5b600073ffffffffffffffffffffffffffffffffffffffff168273ffffffffffffffffffffffffffffffffffffffff1603610ae05760006040517fec442f05000000000000000000000000000000000000000000000000000000008152600401610ad79190611741565b60405180910390fd5b610aeb838383610fc4565b505050565b610b0181610afc61094e565b6111e9565b50565b6000610b1083836106f0565b610beb5760016005600085815260200190815260200160002060000160008473ffffffffffffffffffffffffffffffffffffffff1673ffffffffffffffffffffffffffffffffffffffff16815260200190815260200160002060006101000a81548160ff021916908315150217905550610b8861094e565b73ffffffffffffffffffffffffffffffffffffffff168273ffffffffffffffffffffffffffffffffffffffff16847f2f8788117e7eff1d82e926ec794901d17c78024a50270940304540a733656f0d60405160405180910390a460019050610bf0565b600090505b92915050565b6000610c0283836106f0565b15610cde5760006005600085815260200190815260200160002060000160008473ffffffffffffffffffffffffffffffffffffffff1673ffffffffffffffffffffffffffffffffffffffff16815260200190815260200160002060006101000a81548160ff021916908315150217905550610c7b61094e565b73ffffffffffffffffffffffffffffffffffffffff168273ffffffffffffffffffffffffffffffffffffffff16847ff6391f5c32d9c69d2a47ea670b442974b53935d1edc7fd64eb21e047a839171b60405160405180910390a460019050610ce3565b600090505b92915050565b600073ffffffffffffffffffffffffffffffffffffffff168273ffffffffffffffffffffffffffffffffffffffff1603610d5b5760006040517fec442f05000000000000000000000000000000000000000000000000000000008152600401610d529190611741565b60405180910390fd5b610d6760008383610fc4565b5050565b600073ffffffffffffffffffffffffffffffffffffffff168273ffffffffffffffffffffffffffffffffffffffff1603610ddd5760006040517f96c6fd1e000000000000000000000000000000000000000000000000000000008152600401610dd49190611741565b60405180910390fd5b610de982600083610fc4565b5050565b600073ffffffffffffffffffffffffffffffffffffffff168473ffffffffffffffffffffffffffffffffffffffff1603610e5f5760006040517fe602df05000000000000000000000000000000000000000000000000000000008152600401610e569190611741565b60405180910390fd5b600073ffffffffffffffffffffffffffffffffffffffff168373ffffffffffffffffffffffffffffffffffffffff1603610ed15760006040517f94280d62000000000000000000000000000000000000000000000000000000008152600401610ec89190611741565b60405180910390fd5b81600160008673ffffffffffffffffffffffffffffffffffffffff1673ffffffffffffffffffffffffffffffffffffffff16815260200190815260200160002060008573ffffffffffffffffffffffffffffffffffffffff1673ffffffffffffffffffffffffffffffffffffffff168152602001908152602001600020819055508015610fbe578273ffffffffffffffffffffffffffffffffffffffff168473ffffffffffffffffffffffffffffffffffffffff167f8c5be1e5ebec7d5bd14f71427d1e84f3dd0314c0f7b2291e5b200ac8c7c3b92584604051610fb5919061148f565b60405180910390a35b50505050565b600073ffffffffffffffffffffffffffffffffffffffff168373ffffffffffffffffffffffffffffffffffffffff160361101657806002600082825461100a919061178b565b925050819055506110e9565b60008060008573ffffffffffffffffffffffffffffffffffffffff1673ffffffffffffffffffffffffffffffffffffffff168152602001908152602001600020549050818110156110a2578381836040517fe450d38c0000000000000000000000000000000000000000000000000000000081526004016110999392919061170a565b60405180910390fd5b8181036000808673ffffffffffffffffffffffffffffffffffffffff1673ffffffffffffffffffffffffffffffffffffffff16815260200190815260200160002081905550505b600073ffffffffffffffffffffffffffffffffffffffff168273ffffffffffffffffffffffffffffffffffffffff1603611132578060026000828254039250508190555061117f565b806000808473ffffffffffffffffffffffffffffffffffffffff1673ffffffffffffffffffffffffffffffffffffffff168152602001908152602001600020600082825401925050819055505b8173ffffffffffffffffffffffffffffffffffffffff168373ffffffffffffffffffffffffffffffffffffffff167fddf252ad1be2c89b69c2b068fc378daa952ba7f163c4a11628f55a4df523b3ef836040516111dc919061148f565b60405180910390a3505050565b6111f382826106f0565b6112365780826040517fe2517d3f00000000000000000000000000000000000000000000000000000000815260040161122d9291906117bf565b60405180910390fd5b5050565b600080fd5b60007fffffffff0000000000000000000000000000000000000000000000000000000082169050919050565b6112748161123f565b811461127f57600080fd5b50565b6000813590506112918161126b565b92915050565b6000602082840312156112ad576112ac61123a565b5b60006112bb84828501611282565b91505092915050565b60008115159050919050565b6112d9816112c4565b82525050565b60006020820190506112f460008301846112d0565b92915050565b600081519050919050565b600082825260208201905092915050565b60005b83811015611334578082015181840152602081019050611319565b60008484015250505050565b6000601f19601f8301169050919050565b600061135c826112fa565b6113668185611305565b9350611376818560208601611316565b61137f81611340565b840191505092915050565b600060208201905081810360008301526113a48184611351565b905092915050565b600073ffffffffffffffffffffffffffffffffffffffff82169050919050565b60006113d7826113ac565b9050919050565b6113e7816113cc565b81146113f257600080fd5b50565b600081359050611404816113de565b92915050565b6000819050919050565b61141d8161140a565b811461142857600080fd5b50565b60008135905061143a81611414565b92915050565b600080604083850312156114575761145661123a565b5b6000611465858286016113f5565b92505060206114768582860161142b565b9150509250929050565b6114898161140a565b82525050565b60006020820190506114a46000830184611480565b92915050565b6000806000606084860312156114c3576114c261123a565b5b60006114d1868287016113f5565b93505060206114e2868287016113f5565b92505060406114f38682870161142b565b9150509250925092565b6000819050919050565b611510816114fd565b811461151b57600080fd5b50565b60008135905061152d81611507565b92915050565b6000602082840312156115495761154861123a565b5b60006115578482850161151e565b91505092915050565b611569816114fd565b82525050565b60006020820190506115846000830184611560565b92915050565b600080604083850312156115a1576115a061123a565b5b60006115af8582860161151e565b92505060206115c0858286016113f5565b9150509250929050565b600060ff82169050919050565b6115e0816115ca565b82525050565b60006020820190506115fb60008301846115d7565b92915050565b6000602082840312156116175761161661123a565b5b60006116258482850161142b565b91505092915050565b6000602082840312156116445761164361123a565b5b6000611652848285016113f5565b91505092915050565b600080604083850312156116725761167161123a565b5b6000611680858286016113f5565b9250506020611691858286016113f5565b9150509250929050565b7f4e487b7100000000000000000000000000000000000000000000000000000000600052602260045260246000fd5b600060028204905060018216806116e257607f821691505b6020821081036116f5576116f461169b565b5b50919050565b611704816113cc565b82525050565b600060608201905061171f60008301866116fb565b61172c6020830185611480565b6117396040830184611480565b949350505050565b600060208201905061175660008301846116fb565b92915050565b7f4e487b7100000000000000000000000000000000000000000000000000000000600052601160045260246000fd5b60006117968261140a565b91506117a18361140a565b92508282019050808211156117b9576117b861175c565b5b92915050565b60006040820190506117d460008301856116fb565b6117e16020830184611560565b939250505056fea2646970667358221220dbda6c0f4e274c7cdbe2c8bdddc2f6f2b535cdaf45623264ec4e76019b38dbd364736f6c63430008180033",
  "linkReferences": {},
  "deployedLinkReferences": {}
}